{
  "_format": "hh-sol-artifact-1",
  "contractName": "SpartanSwapUtils",
  "sourceName": "contracts/DApp/SpartanSwap-Utils.sol",
  "abi": [
    {
      "inputs": [
        {
          "internalType": "address",
          "name": "_spartaAddr",
          "type": "address"
        },
        {
          "internalType": "address",
          "name": "_wbnb",
          "type": "address"
        }
      ],
      "stateMutability": "nonpayable",
      "type": "constructor"
    },
    {
      "inputs": [
        {
          "internalType": "uint256",
          "name": "",
          "type": "uint256"
        }
      ],
      "name": "bondedPools",
      "outputs": [
        {
          "internalType": "address",
          "name": "",
          "type": "address"
        }
      ],
      "stateMutability": "view",
      "type": "function"
    },
    {
      "inputs": [
        {
          "internalType": "address",
          "name": "userAddr",
          "type": "address"
        }
      ],
      "name": "getBondDetails",
      "outputs": [
        {
          "components": [
            {
              "internalType": "address",
              "name": "poolAddress",
              "type": "address"
            },
            {
              "internalType": "uint256",
              "name": "bondedTotal",
              "type": "uint256"
            },
            {
              "internalType": "uint256",
              "name": "bondedMember",
              "type": "uint256"
            },
            {
              "internalType": "uint256",
              "name": "lastBlockTime",
              "type": "uint256"
            },
            {
              "internalType": "uint256",
              "name": "claimRate",
              "type": "uint256"
            },
            {
              "internalType": "bool",
              "name": "isMember",
              "type": "bool"
            }
          ],
          "internalType": "struct SpartanSwapUtils.BondDetails[]",
          "name": "returnData",
          "type": "tuple[]"
        }
      ],
      "stateMutability": "view",
      "type": "function"
    },
    {
      "inputs": [],
      "name": "getBondVaultAddr",
      "outputs": [
        {
          "internalType": "address",
          "name": "",
          "type": "address"
        }
      ],
      "stateMutability": "view",
      "type": "function"
    },
    {
      "inputs": [],
      "name": "getCircSupply",
      "outputs": [
        {
          "internalType": "uint256",
          "name": "circSupply",
          "type": "uint256"
        }
      ],
      "stateMutability": "view",
      "type": "function"
    },
    {
      "inputs": [],
      "name": "getCuratedPools",
      "outputs": [
        {
          "internalType": "address[]",
          "name": "",
          "type": "address[]"
        }
      ],
      "stateMutability": "view",
      "type": "function"
    },
    {
      "inputs": [],
      "name": "getDaoAddr",
      "outputs": [
        {
          "internalType": "address",
          "name": "",
          "type": "address"
        }
      ],
      "stateMutability": "view",
      "type": "function"
    },
    {
      "inputs": [
        {
          "internalType": "address",
          "name": "userAddr",
          "type": "address"
        },
        {
          "internalType": "address[]",
          "name": "pools",
          "type": "address[]"
        }
      ],
      "name": "getDaoDetails",
      "outputs": [
        {
          "components": [
            {
              "internalType": "address",
              "name": "poolAddress",
              "type": "address"
            },
            {
              "internalType": "uint256",
              "name": "staked",
              "type": "uint256"
            },
            {
              "internalType": "uint256",
              "name": "globalStaked",
              "type": "uint256"
            }
          ],
          "internalType": "struct SpartanSwapUtils.DaoDetails[]",
          "name": "returnData",
          "type": "tuple[]"
        }
      ],
      "stateMutability": "view",
      "type": "function"
    },
    {
      "inputs": [],
      "name": "getDaoGlobalDetails",
      "outputs": [
        {
          "components": [
            {
              "internalType": "bool",
              "name": "running",
              "type": "bool"
            },
            {
              "internalType": "uint256",
              "name": "coolOffPeriod",
              "type": "uint256"
            },
            {
              "internalType": "uint256",
              "name": "erasToEarn",
              "type": "uint256"
            },
            {
              "internalType": "uint256",
              "name": "daoClaim",
              "type": "uint256"
            },
            {
              "internalType": "uint256",
              "name": "daoFee",
              "type": "uint256"
            },
            {
              "internalType": "uint256",
              "name": "currentProposal",
              "type": "uint256"
            },
            {
              "internalType": "uint256",
              "name": "cancelPeriod",
              "type": "uint256"
            }
          ],
          "internalType": "struct SpartanSwapUtils.DaoGlobalDetails[]",
          "name": "returnData",
          "type": "tuple[]"
        }
      ],
      "stateMutability": "view",
      "type": "function"
    },
    {
      "inputs": [],
      "name": "getDaoVaultAddr",
      "outputs": [
        {
          "internalType": "address",
          "name": "",
          "type": "address"
        }
      ],
      "stateMutability": "view",
      "type": "function"
    },
    {
      "inputs": [],
      "name": "getGlobalDetails",
      "outputs": [
        {
          "components": [
            {
              "internalType": "bool",
              "name": "emitting",
              "type": "bool"
            },
            {
              "internalType": "bool",
              "name": "emissions",
              "type": "bool"
            },
            {
              "internalType": "bool",
              "name": "globalFreeze",
              "type": "bool"
            },
            {
              "internalType": "uint256",
              "name": "totalSupply",
              "type": "uint256"
            },
            {
              "internalType": "uint256",
              "name": "secondsPerEra",
              "type": "uint256"
            },
            {
              "internalType": "uint256",
              "name": "deadSupply",
              "type": "uint256"
            },
            {
              "internalType": "uint256",
              "name": "spartaBalance",
              "type": "uint256"
            }
          ],
          "internalType": "struct SpartanSwapUtils.GlobalDetails[]",
          "name": "returnData",
          "type": "tuple[]"
        }
      ],
      "stateMutability": "view",
      "type": "function"
    },
    {
      "inputs": [],
      "name": "getInternalPrice",
      "outputs": [
        {
          "internalType": "uint256",
          "name": "internalPrice",
          "type": "uint256"
        }
      ],
      "stateMutability": "view",
      "type": "function"
    },
    {
      "inputs": [],
      "name": "getListedPools",
      "outputs": [
        {
          "internalType": "address[]",
          "name": "",
          "type": "address[]"
        }
      ],
      "stateMutability": "view",
      "type": "function"
    },
    {
      "inputs": [],
      "name": "getListedTokens",
      "outputs": [
        {
          "internalType": "address[]",
          "name": "",
          "type": "address[]"
        }
      ],
      "stateMutability": "view",
      "type": "function"
    },
    {
      "inputs": [
        {
          "internalType": "address",
          "name": "userAddr",
          "type": "address"
        },
        {
          "internalType": "address[]",
          "name": "tokens",
          "type": "address[]"
        }
      ],
      "name": "getPoolDetails",
      "outputs": [
        {
          "components": [
            {
              "internalType": "bool",
              "name": "frozen",
              "type": "bool"
            },
            {
              "internalType": "uint256",
              "name": "genesis",
              "type": "uint256"
            },
            {
              "internalType": "uint256",
              "name": "baseAmount",
              "type": "uint256"
            },
            {
              "internalType": "uint256",
              "name": "tokenAmount",
              "type": "uint256"
            },
            {
              "internalType": "uint256",
              "name": "totalSupply",
              "type": "uint256"
            },
            {
              "internalType": "uint256",
              "name": "baseCap",
              "type": "uint256"
            },
            {
              "internalType": "uint256",
              "name": "balance",
              "type": "uint256"
            },
            {
              "internalType": "uint256",
              "name": "oldRate",
              "type": "uint256"
            },
            {
              "internalType": "address",
              "name": "poolAddress",
              "type": "address"
            }
          ],
          "internalType": "struct SpartanSwapUtils.PoolDetails[]",
          "name": "returnData",
          "type": "tuple[]"
        }
      ],
      "stateMutability": "view",
      "type": "function"
    },
    {
      "inputs": [],
      "name": "getPoolFactoryAddr",
      "outputs": [
        {
          "internalType": "address",
          "name": "",
          "type": "address"
        }
      ],
      "stateMutability": "view",
      "type": "function"
    },
    {
      "inputs": [],
      "name": "getReserveAddr",
      "outputs": [
        {
          "internalType": "address",
          "name": "",
          "type": "address"
        }
      ],
      "stateMutability": "view",
      "type": "function"
    },
    {
      "inputs": [],
      "name": "getReserveHoldings",
      "outputs": [
        {
          "components": [
            {
              "internalType": "address",
              "name": "poolAddress",
              "type": "address"
            },
            {
              "internalType": "uint256",
              "name": "poolTotalSupply",
              "type": "uint256"
            },
            {
              "internalType": "uint256",
              "name": "poolBaseAmount",
              "type": "uint256"
            },
            {
              "internalType": "uint256",
              "name": "poolTokenAmount",
              "type": "uint256"
            },
            {
              "internalType": "uint256",
              "name": "resBalance",
              "type": "uint256"
            },
            {
              "internalType": "uint256",
              "name": "resSparta",
              "type": "uint256"
            },
            {
              "internalType": "uint256",
              "name": "resTokens",
              "type": "uint256"
            }
          ],
          "internalType": "struct SpartanSwapUtils.ReserveDetails[]",
          "name": "returnData",
          "type": "tuple[]"
        }
      ],
      "stateMutability": "view",
      "type": "function"
    },
    {
      "inputs": [
        {
          "internalType": "address",
          "name": "inputToken",
          "type": "address"
        },
        {
          "internalType": "address",
          "name": "outputToken",
          "type": "address"
        },
        {
          "internalType": "uint256",
          "name": "inputAmount",
          "type": "uint256"
        }
      ],
      "name": "getSwapOutput",
      "outputs": [
        {
          "internalType": "uint256",
          "name": "outputAmount",
          "type": "uint256"
        }
      ],
      "stateMutability": "view",
      "type": "function"
    },
    {
      "inputs": [
        {
          "internalType": "address",
          "name": "userAddr",
          "type": "address"
        },
        {
          "internalType": "address[]",
          "name": "tokens",
          "type": "address[]"
        }
      ],
      "name": "getSynthDetails",
      "outputs": [
        {
          "components": [
            {
              "internalType": "address",
              "name": "synthAddress",
              "type": "address"
            },
            {
              "internalType": "uint256",
              "name": "balance",
              "type": "uint256"
            },
            {
              "internalType": "uint256",
              "name": "staked",
              "type": "uint256"
            },
            {
              "internalType": "uint256",
              "name": "collateral",
              "type": "uint256"
            },
            {
              "internalType": "uint256",
              "name": "totalSupply",
              "type": "uint256"
            }
          ],
          "internalType": "struct SpartanSwapUtils.SynthDetails[]",
          "name": "returnData",
          "type": "tuple[]"
        }
      ],
      "stateMutability": "view",
      "type": "function"
    },
    {
      "inputs": [],
      "name": "getSynthFactoryAddr",
      "outputs": [
        {
          "internalType": "address",
          "name": "",
          "type": "address"
        }
      ],
      "stateMutability": "view",
      "type": "function"
    },
    {
      "inputs": [],
      "name": "getSynthVaultAddr",
      "outputs": [
        {
          "internalType": "address",
          "name": "",
          "type": "address"
        }
      ],
      "stateMutability": "view",
      "type": "function"
    },
    {
      "inputs": [
        {
          "internalType": "address[]",
          "name": "poolAddresses",
          "type": "address[]"
        }
      ],
      "name": "getTVL",
      "outputs": [
        {
          "internalType": "uint256",
          "name": "tvlSPARTA",
          "type": "uint256"
        }
      ],
      "stateMutability": "view",
      "type": "function"
    },
    {
      "inputs": [],
      "name": "getTVLUnbounded",
      "outputs": [
        {
          "internalType": "uint256",
          "name": "tvlSPARTA",
          "type": "uint256"
        }
      ],
      "stateMutability": "view",
      "type": "function"
    },
    {
      "inputs": [
        {
          "internalType": "address",
          "name": "userAddr",
          "type": "address"
        },
        {
          "internalType": "address[]",
          "name": "tokens",
          "type": "address[]"
        }
      ],
      "name": "getTokenDetails",
      "outputs": [
        {
          "components": [
            {
              "internalType": "uint256",
              "name": "decimals",
              "type": "uint256"
            },
            {
              "internalType": "uint256",
              "name": "balance",
              "type": "uint256"
            },
            {
              "internalType": "string",
              "name": "symbol",
              "type": "string"
            }
          ],
          "internalType": "struct SpartanSwapUtils.TokenDetails[]",
          "name": "returnData",
          "type": "tuple[]"
        }
      ],
      "stateMutability": "view",
      "type": "function"
    },
    {
      "inputs": [],
      "name": "getTotalSupply",
      "outputs": [
        {
          "internalType": "uint256",
          "name": "totalSupply",
          "type": "uint256"
        }
      ],
      "stateMutability": "view",
      "type": "function"
    },
    {
      "inputs": [
        {
          "internalType": "uint256",
          "name": "",
          "type": "uint256"
        }
      ],
      "name": "reserveHeldPools",
      "outputs": [
        {
          "internalType": "address",
          "name": "",
          "type": "address"
        }
      ],
      "stateMutability": "view",
      "type": "function"
    },
    {
      "inputs": [
        {
          "internalType": "address[]",
          "name": "bondPoolArray",
          "type": "address[]"
        }
      ],
      "name": "setBondPoolArray",
      "outputs": [],
      "stateMutability": "nonpayable",
      "type": "function"
    },
    {
      "inputs": [
        {
          "internalType": "address[]",
          "name": "reservePoolArray",
          "type": "address[]"
        }
      ],
      "name": "setReservePoolArray",
      "outputs": [],
      "stateMutability": "nonpayable",
      "type": "function"
    },
    {
      "inputs": [
        {
          "internalType": "address[]",
          "name": "stablePoolArray",
          "type": "address[]"
        }
      ],
      "name": "setStablePoolArray",
      "outputs": [],
      "stateMutability": "nonpayable",
      "type": "function"
    },
    {
      "inputs": [],
      "name": "sparta",
      "outputs": [
        {
          "internalType": "address",
          "name": "",
          "type": "address"
        }
      ],
      "stateMutability": "view",
      "type": "function"
    },
    {
      "inputs": [
        {
          "internalType": "uint256",
          "name": "",
          "type": "uint256"
        }
      ],
      "name": "stableCoinPools",
      "outputs": [
        {
          "internalType": "address",
          "name": "",
          "type": "address"
        }
      ],
      "stateMutability": "view",
      "type": "function"
    },
    {
      "inputs": [],
      "name": "wbnb",
      "outputs": [
        {
          "internalType": "address",
          "name": "",
          "type": "address"
        }
      ],
      "stateMutability": "view",
      "type": "function"
    }
  ],
  "bytecode": "0x60e06040523480156200001157600080fd5b5060405162006c0738038062006c07833981810160405281019062000037919062000145565b8173ffffffffffffffffffffffffffffffffffffffff1660808173ffffffffffffffffffffffffffffffffffffffff16815250508073ffffffffffffffffffffffffffffffffffffffff1660a08173ffffffffffffffffffffffffffffffffffffffff16815250503373ffffffffffffffffffffffffffffffffffffffff1660c08173ffffffffffffffffffffffffffffffffffffffff168152505050506200018c565b600080fd5b600073ffffffffffffffffffffffffffffffffffffffff82169050919050565b60006200010d82620000e0565b9050919050565b6200011f8162000100565b81146200012b57600080fd5b50565b6000815190506200013f8162000114565b92915050565b600080604083850312156200015f576200015e620000db565b5b60006200016f858286016200012e565b925050602062000182858286016200012e565b9150509250929050565b60805160a05160c051616933620002d460003960008181611e0f01528181611eb3015261239e01526000818161350801528181614a6c0152614c71015260008181610667015281816106fd0152818161080b0152818161090c01528181610daf01528181610f260152818161102c015281816111a201528181611240015281816112d80152818161137001528181611493015281816114cf015281816116b7015281816117bc0152818161193a01528181611aaf01528181611f5b0152818161229c01528181612445015281816125440152818161279a01528181612df501528181613263015281816133930152818161352c015281816135520152818161358e015281816136e80152818161378401528181613a0501528181613d7a01528181613e7e01528181613f1a0152818161402501528181614dbf0152614ec301526169336000f3fe608060405234801561001057600080fd5b50600436106101f05760003560e01c8063785b87d41161010f578063bbef57d9116100a2578063e002566411610071578063e0025664146105d9578063e10fb9d9146105f7578063ed37a99714610627578063edc01fd814610645576101f0565b8063bbef57d91461053d578063c4e41b221461055b578063c696a42314610579578063dc97ca53146105a9576101f0565b80638e1d6d68116100de5780638e1d6d68146104b3578063b0c22f8d146104d1578063b76ff47c146104ef578063b801ae581461050d576101f0565b8063785b87d41461041757806384f3700b14610447578063855304d2146104775780638d72647e14610495576101f0565b806352df87c51161018757806369ebdf8f1161015657806369ebdf8f1461038f5780636bf2ad9f146103ad57806372ea9076146103c9578063744d0530146103f9576101f0565b806352df87c5146102f75780635651c18f1461032757806358d021a61461034357806368860f391461035f576101f0565b8063307411a4116101c3578063307411a41461027f578063389b7b5b1461029d57806340651da3146102bb578063448ea5cc146102d9576101f0565b80630af04f98146101f55780631f4d5b001461021357806329db7f3f146102315780632ba996a514610261575b600080fd5b6101fd610663565b60405161020a91906153c5565b60405180910390f35b61021b6106f9565b60405161022891906153c5565b60405180910390f35b61024b60048036038101906102469190615485565b6107fd565b6040516102589190615624565b60405180910390f35b610269610dab565b60405161027691906156f5565b60405180910390f35b610287610f22565b60405161029491906153c5565b60405180910390f35b6102a5611026565b6040516102b2919061586f565b60405180910390f35b6102c36116b3565b6040516102d091906153c5565b60405180910390f35b6102e16117b7565b6040516102ee91906158a0565b60405180910390f35b610311600480360381019061030c91906158bb565b611a18565b60405161031e9190615a12565b60405180910390f35b610341600480360381019061033c9190615a34565b611e0d565b005b61035d60048036038101906103589190615a34565b611eb1565b005b61037960048036038101906103749190615485565b611f55565b6040516103869190615b72565b60405180910390f35b610397612298565b6040516103a491906153c5565b60405180910390f35b6103c760048036038101906103c29190615a34565b61239c565b005b6103e360048036038101906103de9190615bc0565b612440565b6040516103f091906158a0565b60405180910390f35b610401612def565b60405161040e9190615d50565b60405180910390f35b610431600480360381019061042c9190615a34565b61324e565b60405161043e91906158a0565b60405180910390f35b610461600480360381019061045c9190615d72565b613350565b60405161046e91906153c5565b60405180910390f35b61047f61338f565b60405161048c91906156f5565b60405180910390f35b61049d613506565b6040516104aa91906153c5565b60405180910390f35b6104bb61352a565b6040516104c891906153c5565b60405180910390f35b6104d961354e565b6040516104e691906158a0565b60405180910390f35b6104f761387b565b6040516105049190615edc565b60405180910390f35b61052760048036038101906105229190615d72565b613d37565b60405161053491906153c5565b60405180910390f35b610545613d76565b60405161055291906153c5565b60405180910390f35b610563613e7a565b60405161057091906158a0565b60405180910390f35b610593600480360381019061058e9190615485565b613fb6565b6040516105a09190616065565b60405180910390f35b6105c360048036038101906105be9190615d72565b614636565b6040516105d091906153c5565b60405180910390f35b6105e1614675565b6040516105ee91906158a0565b60405180910390f35b610611600480360381019061060c9190615485565b6149b4565b60405161061e9190616229565b60405180910390f35b61062f614dbb565b60405161063c91906153c5565b60405180910390f35b61064d614ebf565b60405161065a91906156f5565b60405180910390f35b60007f000000000000000000000000000000000000000000000000000000000000000073ffffffffffffffffffffffffffffffffffffffff166398fabd3a6040518163ffffffff1660e01b8152600401602060405180830381865afa1580156106d0573d6000803e3d6000fd5b505050506040513d601f19601f820116820180604052508101906106f49190616260565b905090565b60007f000000000000000000000000000000000000000000000000000000000000000073ffffffffffffffffffffffffffffffffffffffff166398fabd3a6040518163ffffffff1660e01b8152600401602060405180830381865afa158015610766573d6000803e3d6000fd5b505050506040513d601f19601f8201168201806040525081019061078a9190616260565b73ffffffffffffffffffffffffffffffffffffffff1663b99b0a0c6040518163ffffffff1660e01b8152600401602060405180830381865afa1580156107d4573d6000803e3d6000fd5b505050506040513d601f19601f820116820180604052508101906107f89190616260565b905090565b6060600083839050905060007f000000000000000000000000000000000000000000000000000000000000000073ffffffffffffffffffffffffffffffffffffffff166398fabd3a6040518163ffffffff1660e01b8152600401602060405180830381865afa158015610874573d6000803e3d6000fd5b505050506040513d601f19601f820116820180604052508101906108989190616260565b73ffffffffffffffffffffffffffffffffffffffff1663b93ec54b6040518163ffffffff1660e01b8152600401602060405180830381865afa1580156108e2573d6000803e3d6000fd5b505050506040513d601f19601f820116820180604052508101906109069190616260565b905060007f000000000000000000000000000000000000000000000000000000000000000073ffffffffffffffffffffffffffffffffffffffff166398fabd3a6040518163ffffffff1660e01b8152600401602060405180830381865afa158015610975573d6000803e3d6000fd5b505050506040513d601f19601f820116820180604052508101906109999190616260565b73ffffffffffffffffffffffffffffffffffffffff16632ab24e496040518163ffffffff1660e01b8152600401602060405180830381865afa1580156109e3573d6000803e3d6000fd5b505050506040513d601f19601f82011682018060405250810190610a079190616260565b90508267ffffffffffffffff811115610a2357610a2261628d565b5b604051908082528060200260200182016040528015610a5c57816020015b610a496150a3565b815260200190600190039081610a415790505b50935060005b83811015610da05760008373ffffffffffffffffffffffffffffffffffffffff1663dcec8116898985818110610a9b57610a9a6162bc565b5b9050602002016020810190610ab091906158bb565b6040518263ffffffff1660e01b8152600401610acc91906153c5565b602060405180830381865afa158015610ae9573d6000803e3d6000fd5b505050506040513d601f19601f82011682018060405250810190610b0d9190616260565b90506000868381518110610b2457610b236162bc565b5b6020026020010151905081816000019073ffffffffffffffffffffffffffffffffffffffff16908173ffffffffffffffffffffffffffffffffffffffff16815250508173ffffffffffffffffffffffffffffffffffffffff1663d8dfeb456040518163ffffffff1660e01b8152600401602060405180830381865afa158015610bb1573d6000803e3d6000fd5b505050506040513d601f19601f82011682018060405250810190610bd59190616300565b8160600181815250508173ffffffffffffffffffffffffffffffffffffffff166318160ddd6040518163ffffffff1660e01b8152600401602060405180830381865afa158015610c29573d6000803e3d6000fd5b505050506040513d601f19601f82011682018060405250810190610c4d9190616300565b816080018181525050600073ffffffffffffffffffffffffffffffffffffffff168a73ffffffffffffffffffffffffffffffffffffffff1614610d93578173ffffffffffffffffffffffffffffffffffffffff166370a082318b6040518263ffffffff1660e01b8152600401610cc391906153c5565b602060405180830381865afa158015610ce0573d6000803e3d6000fd5b505050506040513d601f19601f82011682018060405250810190610d049190616300565b8160200181815250508373ffffffffffffffffffffffffffffffffffffffff16638dfa9bcc8b846040518363ffffffff1660e01b8152600401610d4892919061632d565b602060405180830381865afa158015610d65573d6000803e3d6000fd5b505050506040513d601f19601f82011682018060405250810190610d899190616300565b8160400181815250505b8260010192505050610a62565b505050509392505050565b60607f000000000000000000000000000000000000000000000000000000000000000073ffffffffffffffffffffffffffffffffffffffff166398fabd3a6040518163ffffffff1660e01b8152600401602060405180830381865afa158015610e18573d6000803e3d6000fd5b505050506040513d601f19601f82011682018060405250810190610e3c9190616260565b73ffffffffffffffffffffffffffffffffffffffff1663b99b0a0c6040518163ffffffff1660e01b8152600401602060405180830381865afa158015610e86573d6000803e3d6000fd5b505050506040513d601f19601f82011682018060405250810190610eaa9190616260565b73ffffffffffffffffffffffffffffffffffffffff1663cf3abaf16040518163ffffffff1660e01b8152600401600060405180830381865afa158015610ef4573d6000803e3d6000fd5b505050506040513d6000823e3d601f19601f82011682018060405250810190610f1d9190616465565b905090565b60007f000000000000000000000000000000000000000000000000000000000000000073ffffffffffffffffffffffffffffffffffffffff166398fabd3a6040518163ffffffff1660e01b8152600401602060405180830381865afa158015610f8f573d6000803e3d6000fd5b505050506040513d601f19601f82011682018060405250810190610fb39190616260565b73ffffffffffffffffffffffffffffffffffffffff16632ab24e496040518163ffffffff1660e01b8152600401602060405180830381865afa158015610ffd573d6000803e3d6000fd5b505050506040513d601f19601f820116820180604052508101906110219190616260565b905090565b606060007f000000000000000000000000000000000000000000000000000000000000000073ffffffffffffffffffffffffffffffffffffffff166398fabd3a6040518163ffffffff1660e01b8152600401602060405180830381865afa158015611095573d6000803e3d6000fd5b505050506040513d601f19601f820116820180604052508101906110b99190616260565b73ffffffffffffffffffffffffffffffffffffffff16639d2cc4366040518163ffffffff1660e01b8152600401602060405180830381865afa158015611103573d6000803e3d6000fd5b505050506040513d601f19601f820116820180604052508101906111279190616260565b9050600167ffffffffffffffff8111156111445761114361628d565b5b60405190808252806020026020018201604052801561117d57816020015b61116a6150e8565b8152602001906001900390816111625790505b509150600082600081518110611196576111956162bc565b5b602002602001015190507f000000000000000000000000000000000000000000000000000000000000000073ffffffffffffffffffffffffffffffffffffffff16630781f4d26040518163ffffffff1660e01b8152600401602060405180830381865afa15801561120b573d6000803e3d6000fd5b505050506040513d601f19601f8201168201806040525081019061122f91906164da565b8160000190151590811515815250507f000000000000000000000000000000000000000000000000000000000000000073ffffffffffffffffffffffffffffffffffffffff166318160ddd6040518163ffffffff1660e01b8152600401602060405180830381865afa1580156112a9573d6000803e3d6000fd5b505050506040513d601f19601f820116820180604052508101906112cd9190616300565b8160600181815250507f000000000000000000000000000000000000000000000000000000000000000073ffffffffffffffffffffffffffffffffffffffff16636b92a3b66040518163ffffffff1660e01b8152600401602060405180830381865afa158015611341573d6000803e3d6000fd5b505050506040513d601f19601f820116820180604052508101906113659190616300565b8160800181815250507f000000000000000000000000000000000000000000000000000000000000000073ffffffffffffffffffffffffffffffffffffffff166370a0823161dead6040518263ffffffff1660e01b81526004016113c991906153c5565b602060405180830381865afa1580156113e6573d6000803e3d6000fd5b505050506040513d601f19601f8201168201806040525081019061140a9190616300565b8160a00181815250508173ffffffffffffffffffffffffffffffffffffffff16632267716c6040518163ffffffff1660e01b8152600401602060405180830381865afa15801561145e573d6000803e3d6000fd5b505050506040513d601f19601f8201168201806040525081019061148291906164da565b8160200190151590811515815250507f000000000000000000000000000000000000000000000000000000000000000073ffffffffffffffffffffffffffffffffffffffff166370a082317f000000000000000000000000000000000000000000000000000000000000000073ffffffffffffffffffffffffffffffffffffffff166398fabd3a6040518163ffffffff1660e01b8152600401602060405180830381865afa158015611538573d6000803e3d6000fd5b505050506040513d601f19601f8201168201806040525081019061155c9190616260565b73ffffffffffffffffffffffffffffffffffffffff16639d2cc4366040518163ffffffff1660e01b8152600401602060405180830381865afa1580156115a6573d6000803e3d6000fd5b505050506040513d601f19601f820116820180604052508101906115ca9190616260565b6040518263ffffffff1660e01b81526004016115e691906153c5565b602060405180830381865afa158015611603573d6000803e3d6000fd5b505050506040513d601f19601f820116820180604052508101906116279190616300565b8160c00181815250508173ffffffffffffffffffffffffffffffffffffffff1663194e22ce6040518163ffffffff1660e01b8152600401602060405180830381865afa15801561167b573d6000803e3d6000fd5b505050506040513d601f19601f8201168201806040525081019061169f91906164da565b816040019015159081151581525050505090565b60007f000000000000000000000000000000000000000000000000000000000000000073ffffffffffffffffffffffffffffffffffffffff166398fabd3a6040518163ffffffff1660e01b8152600401602060405180830381865afa158015611720573d6000803e3d6000fd5b505050506040513d601f19601f820116820180604052508101906117449190616260565b73ffffffffffffffffffffffffffffffffffffffff16632f7fa1806040518163ffffffff1660e01b8152600401602060405180830381865afa15801561178e573d6000803e3d6000fd5b505050506040513d601f19601f820116820180604052508101906117b29190616260565b905090565b6000807f000000000000000000000000000000000000000000000000000000000000000073ffffffffffffffffffffffffffffffffffffffff166398fabd3a6040518163ffffffff1660e01b8152600401602060405180830381865afa158015611825573d6000803e3d6000fd5b505050506040513d601f19601f820116820180604052508101906118499190616260565b73ffffffffffffffffffffffffffffffffffffffff1663b99b0a0c6040518163ffffffff1660e01b8152600401602060405180830381865afa158015611893573d6000803e3d6000fd5b505050506040513d601f19601f820116820180604052508101906118b79190616260565b73ffffffffffffffffffffffffffffffffffffffff166345f6e4606040518163ffffffff1660e01b8152600401600060405180830381865afa158015611901573d6000803e3d6000fd5b505050506040513d6000823e3d601f19601f8201168201806040525081019061192a9190616465565b905060005b8151811015611a04577f000000000000000000000000000000000000000000000000000000000000000073ffffffffffffffffffffffffffffffffffffffff166370a08231838381518110611987576119866162bc565b5b60200260200101516040518263ffffffff1660e01b81526004016119ab91906153c5565b602060405180830381865afa1580156119c8573d6000803e3d6000fd5b505050506040513d601f19601f820116820180604052508101906119ec9190616300565b836119f79190616536565b925080600101905061192f565b50600282611a12919061656a565b91505090565b606060006002805480602002602001604051908101604052809291908181526020018280548015611a9e57602002820191906000526020600020905b8160009054906101000a900473ffffffffffffffffffffffffffffffffffffffff1673ffffffffffffffffffffffffffffffffffffffff1681526020019060010190808311611a54575b5050505050905060008151905060007f000000000000000000000000000000000000000000000000000000000000000073ffffffffffffffffffffffffffffffffffffffff166398fabd3a6040518163ffffffff1660e01b8152600401602060405180830381865afa158015611b18573d6000803e3d6000fd5b505050506040513d601f19601f82011682018060405250810190611b3c9190616260565b73ffffffffffffffffffffffffffffffffffffffff16632f7fa1806040518163ffffffff1660e01b8152600401602060405180830381865afa158015611b86573d6000803e3d6000fd5b505050506040513d601f19601f82011682018060405250810190611baa9190616260565b90508167ffffffffffffffff811115611bc657611bc561628d565b5b604051908082528060200260200182016040528015611bff57816020015b611bec61512b565b815260200190600190039081611be45790505b50935060005b82811015611e04576000848281518110611c2257611c216162bc565b5b602002602001015190506000868381518110611c4157611c406162bc565b5b6020026020010151905081816000019073ffffffffffffffffffffffffffffffffffffffff16908173ffffffffffffffffffffffffffffffffffffffff16815250508373ffffffffffffffffffffffffffffffffffffffff166389bbd670836040518263ffffffff1660e01b8152600401611cbc91906153c5565b602060405180830381865afa158015611cd9573d6000803e3d6000fd5b505050506040513d601f19601f82011682018060405250810190611cfd9190616300565b816020018181525050600073ffffffffffffffffffffffffffffffffffffffff168873ffffffffffffffffffffffffffffffffffffffff1614611df7576000806000808773ffffffffffffffffffffffffffffffffffffffff16631b89c1398d886040518363ffffffff1660e01b8152600401611d7b92919061632d565b608060405180830381865afa158015611d98573d6000803e3d6000fd5b505050506040513d601f19601f82011682018060405250810190611dbc91906165c4565b9350935093509350838560a0019015159081151581525050828560400181815250508185608001818152505080856060018181525050505050505b8260010192505050611c05565b50505050919050565b7f000000000000000000000000000000000000000000000000000000000000000073ffffffffffffffffffffffffffffffffffffffff163373ffffffffffffffffffffffffffffffffffffffff1614611e9b576040517f08c379a0000000000000000000000000000000000000000000000000000000008152600401611e9290616688565b60405180910390fd5b818160029190611eac929190615179565b505050565b7f000000000000000000000000000000000000000000000000000000000000000073ffffffffffffffffffffffffffffffffffffffff163373ffffffffffffffffffffffffffffffffffffffff1614611f3f576040517f08c379a0000000000000000000000000000000000000000000000000000000008152600401611f3690616688565b60405180910390fd5b818160009190611f50929190615179565b505050565b606060007f000000000000000000000000000000000000000000000000000000000000000073ffffffffffffffffffffffffffffffffffffffff166398fabd3a6040518163ffffffff1660e01b8152600401602060405180830381865afa158015611fc4573d6000803e3d6000fd5b505050506040513d601f19601f82011682018060405250810190611fe89190616260565b73ffffffffffffffffffffffffffffffffffffffff166338da7dd66040518163ffffffff1660e01b8152600401602060405180830381865afa158015612032573d6000803e3d6000fd5b505050506040513d601f19601f820116820180604052508101906120569190616260565b905060008484905090508067ffffffffffffffff81111561207a5761207961628d565b5b6040519080825280602002602001820160405280156120b357816020015b6120a0615219565b8152602001906001900390816120985790505b50925060005b8181101561228e5760008686838181106120d6576120d56162bc565b5b90506020020160208101906120eb91906158bb565b90506000858381518110612102576121016162bc565b5b6020026020010151905081816000019073ffffffffffffffffffffffffffffffffffffffff16908173ffffffffffffffffffffffffffffffffffffffff16815250508473ffffffffffffffffffffffffffffffffffffffff166389bbd670836040518263ffffffff1660e01b815260040161217d91906153c5565b602060405180830381865afa15801561219a573d6000803e3d6000fd5b505050506040513d601f19601f820116820180604052508101906121be9190616300565b816040018181525050600073ffffffffffffffffffffffffffffffffffffffff168973ffffffffffffffffffffffffffffffffffffffff1614612281578473ffffffffffffffffffffffffffffffffffffffff1663aa9fd374838b6040518363ffffffff1660e01b815260040161223692919061632d565b602060405180830381865afa158015612253573d6000803e3d6000fd5b505050506040513d601f19601f820116820180604052508101906122779190616300565b8160200181815250505b82600101925050506120b9565b5050509392505050565b60007f000000000000000000000000000000000000000000000000000000000000000073ffffffffffffffffffffffffffffffffffffffff166398fabd3a6040518163ffffffff1660e01b8152600401602060405180830381865afa158015612305573d6000803e3d6000fd5b505050506040513d601f19601f820116820180604052508101906123299190616260565b73ffffffffffffffffffffffffffffffffffffffff16639d2cc4366040518163ffffffff1660e01b8152600401602060405180830381865afa158015612373573d6000803e3d6000fd5b505050506040513d601f19601f820116820180604052508101906123979190616260565b905090565b7f000000000000000000000000000000000000000000000000000000000000000073ffffffffffffffffffffffffffffffffffffffff163373ffffffffffffffffffffffffffffffffffffffff161461242a576040517f08c379a000000000000000000000000000000000000000000000000000000000815260040161242190616688565b60405180910390fd5b81816001919061243b929190615179565b505050565b6000807f000000000000000000000000000000000000000000000000000000000000000073ffffffffffffffffffffffffffffffffffffffff166398fabd3a6040518163ffffffff1660e01b8152600401602060405180830381865afa1580156124ae573d6000803e3d6000fd5b505050506040513d601f19601f820116820180604052508101906124d29190616260565b73ffffffffffffffffffffffffffffffffffffffff1663b99b0a0c6040518163ffffffff1660e01b8152600401602060405180830381865afa15801561251c573d6000803e3d6000fd5b505050506040513d601f19601f820116820180604052508101906125409190616260565b90507f000000000000000000000000000000000000000000000000000000000000000073ffffffffffffffffffffffffffffffffffffffff168573ffffffffffffffffffffffffffffffffffffffff16036127985760008173ffffffffffffffffffffffffffffffffffffffff1663bbe4f6db866040518263ffffffff1660e01b81526004016125d091906153c5565b602060405180830381865afa1580156125ed573d6000803e3d6000fd5b505050506040513d601f19601f820116820180604052508101906126119190616260565b90508173ffffffffffffffffffffffffffffffffffffffff16635b16ebb7826040518263ffffffff1660e01b815260040161264c91906153c5565b602060405180830381865afa158015612669573d6000803e3d6000fd5b505050506040513d601f19601f8201168201806040525081019061268d91906164da565b61269c57600092505050612de8565b60008173ffffffffffffffffffffffffffffffffffffffff16634864d1406040518163ffffffff1660e01b8152600401602060405180830381865afa1580156126e9573d6000803e3d6000fd5b505050506040513d601f19601f8201168201806040525081019061270d9190616300565b905060008273ffffffffffffffffffffffffffffffffffffffff1663eec7faa16040518163ffffffff1660e01b8152600401602060405180830381865afa15801561275c573d6000803e3d6000fd5b505050506040513d601f19601f820116820180604052508101906127809190616300565b905061278d868383615036565b945050505050612de8565b7f000000000000000000000000000000000000000000000000000000000000000073ffffffffffffffffffffffffffffffffffffffff168473ffffffffffffffffffffffffffffffffffffffff16036129ee5760008173ffffffffffffffffffffffffffffffffffffffff1663bbe4f6db876040518263ffffffff1660e01b815260040161282691906153c5565b602060405180830381865afa158015612843573d6000803e3d6000fd5b505050506040513d601f19601f820116820180604052508101906128679190616260565b90508173ffffffffffffffffffffffffffffffffffffffff16635b16ebb7826040518263ffffffff1660e01b81526004016128a291906153c5565b602060405180830381865afa1580156128bf573d6000803e3d6000fd5b505050506040513d601f19601f820116820180604052508101906128e391906164da565b6128f257600092505050612de8565b60008173ffffffffffffffffffffffffffffffffffffffff16634864d1406040518163ffffffff1660e01b8152600401602060405180830381865afa15801561293f573d6000803e3d6000fd5b505050506040513d601f19601f820116820180604052508101906129639190616300565b905060008273ffffffffffffffffffffffffffffffffffffffff1663eec7faa16040518163ffffffff1660e01b8152600401602060405180830381865afa1580156129b2573d6000803e3d6000fd5b505050506040513d601f19601f820116820180604052508101906129d69190616300565b90506129e3868284615036565b945050505050612de8565b60008173ffffffffffffffffffffffffffffffffffffffff1663bbe4f6db876040518263ffffffff1660e01b8152600401612a2991906153c5565b602060405180830381865afa158015612a46573d6000803e3d6000fd5b505050506040513d601f19601f82011682018060405250810190612a6a9190616260565b90508173ffffffffffffffffffffffffffffffffffffffff16635b16ebb7826040518263ffffffff1660e01b8152600401612aa591906153c5565b602060405180830381865afa158015612ac2573d6000803e3d6000fd5b505050506040513d601f19601f82011682018060405250810190612ae691906164da565b612af557600092505050612de8565b60008273ffffffffffffffffffffffffffffffffffffffff1663bbe4f6db876040518263ffffffff1660e01b8152600401612b3091906153c5565b602060405180830381865afa158015612b4d573d6000803e3d6000fd5b505050506040513d601f19601f82011682018060405250810190612b719190616260565b90508273ffffffffffffffffffffffffffffffffffffffff16635b16ebb7826040518263ffffffff1660e01b8152600401612bac91906153c5565b602060405180830381865afa158015612bc9573d6000803e3d6000fd5b505050506040513d601f19601f82011682018060405250810190612bed91906164da565b612bfd5760009350505050612de8565b60008273ffffffffffffffffffffffffffffffffffffffff16634864d1406040518163ffffffff1660e01b8152600401602060405180830381865afa158015612c4a573d6000803e3d6000fd5b505050506040513d601f19601f82011682018060405250810190612c6e9190616300565b905060008373ffffffffffffffffffffffffffffffffffffffff1663eec7faa16040518163ffffffff1660e01b8152600401602060405180830381865afa158015612cbd573d6000803e3d6000fd5b505050506040513d601f19601f82011682018060405250810190612ce19190616300565b90506000612cf0888385615036565b90508373ffffffffffffffffffffffffffffffffffffffff16634864d1406040518163ffffffff1660e01b8152600401602060405180830381865afa158015612d3d573d6000803e3d6000fd5b505050506040513d601f19601f82011682018060405250810190612d619190616300565b92508373ffffffffffffffffffffffffffffffffffffffff1663eec7faa16040518163ffffffff1660e01b8152600401602060405180830381865afa158015612dae573d6000803e3d6000fd5b505050506040513d601f19601f82011682018060405250810190612dd29190616300565b9150612ddf818484615036565b96505050505050505b9392505050565b606060007f000000000000000000000000000000000000000000000000000000000000000073ffffffffffffffffffffffffffffffffffffffff166398fabd3a6040518163ffffffff1660e01b8152600401602060405180830381865afa158015612e5e573d6000803e3d6000fd5b505050506040513d601f19601f82011682018060405250810190612e829190616260565b9050600167ffffffffffffffff811115612e9f57612e9e61628d565b5b604051908082528060200260200182016040528015612ed857816020015b612ec5615250565b815260200190600190039081612ebd5790505b509150600082600081518110612ef157612ef06162bc565b5b602002602001015190508173ffffffffffffffffffffffffffffffffffffffff1663d85bd5266040518163ffffffff1660e01b8152600401602060405180830381865afa158015612f46573d6000803e3d6000fd5b505050506040513d601f19601f82011682018060405250810190612f6a91906164da565b8160000190151590811515815250508173ffffffffffffffffffffffffffffffffffffffff1663abb6154f6040518163ffffffff1660e01b8152600401602060405180830381865afa158015612fc4573d6000803e3d6000fd5b505050506040513d601f19601f82011682018060405250810190612fe89190616300565b8160200181815250508173ffffffffffffffffffffffffffffffffffffffff16632c07eebf6040518163ffffffff1660e01b8152600401602060405180830381865afa15801561303c573d6000803e3d6000fd5b505050506040513d601f19601f820116820180604052508101906130609190616300565b8160400181815250508173ffffffffffffffffffffffffffffffffffffffff166379b2dc4c6040518163ffffffff1660e01b8152600401602060405180830381865afa1580156130b4573d6000803e3d6000fd5b505050506040513d601f19601f820116820180604052508101906130d89190616300565b8160600181815250508173ffffffffffffffffffffffffffffffffffffffff16632957b8396040518163ffffffff1660e01b8152600401602060405180830381865afa15801561312c573d6000803e3d6000fd5b505050506040513d601f19601f820116820180604052508101906131509190616300565b8160800181815250508173ffffffffffffffffffffffffffffffffffffffff16632b49d4256040518163ffffffff1660e01b8152600401602060405180830381865afa1580156131a4573d6000803e3d6000fd5b505050506040513d601f19601f820116820180604052508101906131c89190616300565b8160a00181815250508173ffffffffffffffffffffffffffffffffffffffff166385d2b9166040518163ffffffff1660e01b8152600401602060405180830381865afa15801561321c573d6000803e3d6000fd5b505050506040513d601f19601f820116820180604052508101906132409190616300565b8160c0018181525050505090565b600080600090505b8383905081101561333a577f000000000000000000000000000000000000000000000000000000000000000073ffffffffffffffffffffffffffffffffffffffff166370a082318585848181106132b0576132af6162bc565b5b90506020020160208101906132c591906158bb565b6040518263ffffffff1660e01b81526004016132e191906153c5565b602060405180830381865afa1580156132fe573d6000803e3d6000fd5b505050506040513d601f19601f820116820180604052508101906133229190616300565b8261332d9190616536565b9150806001019050613256565b50600281613348919061656a565b905092915050565b6001818154811061336057600080fd5b906000526020600020016000915054906101000a900473ffffffffffffffffffffffffffffffffffffffff1681565b60607f000000000000000000000000000000000000000000000000000000000000000073ffffffffffffffffffffffffffffffffffffffff166398fabd3a6040518163ffffffff1660e01b8152600401602060405180830381865afa1580156133fc573d6000803e3d6000fd5b505050506040513d601f19601f820116820180604052508101906134209190616260565b73ffffffffffffffffffffffffffffffffffffffff1663b99b0a0c6040518163ffffffff1660e01b8152600401602060405180830381865afa15801561346a573d6000803e3d6000fd5b505050506040513d601f19601f8201168201806040525081019061348e9190616260565b73ffffffffffffffffffffffffffffffffffffffff166345f6e4606040518163ffffffff1660e01b8152600401600060405180830381865afa1580156134d8573d6000803e3d6000fd5b505050506040513d6000823e3d601f19601f820116820180604052508101906135019190616465565b905090565b7f000000000000000000000000000000000000000000000000000000000000000081565b7f000000000000000000000000000000000000000000000000000000000000000081565b60007f000000000000000000000000000000000000000000000000000000000000000073ffffffffffffffffffffffffffffffffffffffff166370a082317f000000000000000000000000000000000000000000000000000000000000000073ffffffffffffffffffffffffffffffffffffffff166398fabd3a6040518163ffffffff1660e01b8152600401602060405180830381865afa1580156135f7573d6000803e3d6000fd5b505050506040513d601f19601f8201168201806040525081019061361b9190616260565b73ffffffffffffffffffffffffffffffffffffffff16639d2cc4366040518163ffffffff1660e01b8152600401602060405180830381865afa158015613665573d6000803e3d6000fd5b505050506040513d601f19601f820116820180604052508101906136899190616260565b6040518263ffffffff1660e01b81526004016136a591906153c5565b602060405180830381865afa1580156136c2573d6000803e3d6000fd5b505050506040513d601f19601f820116820180604052508101906136e69190616300565b7f000000000000000000000000000000000000000000000000000000000000000073ffffffffffffffffffffffffffffffffffffffff166370a0823161dead6040518263ffffffff1660e01b815260040161374191906153c5565b602060405180830381865afa15801561375e573d6000803e3d6000fd5b505050506040513d601f19601f820116820180604052508101906137829190616300565b7f000000000000000000000000000000000000000000000000000000000000000073ffffffffffffffffffffffffffffffffffffffff166318160ddd6040518163ffffffff1660e01b8152600401602060405180830381865afa1580156137ed573d6000803e3d6000fd5b505050506040513d601f19601f820116820180604052508101906138119190616300565b61381b91906166a8565b61382591906166a8565b9050600061383161387b565b905060005b815181101561387657818181518110613852576138516162bc565b5b602002602001015160a001518361386991906166a8565b9250806001019050613836565b505090565b60606000600180548060200260200160405190810160405280929190818152602001828054801561390157602002820191906000526020600020905b8160009054906101000a900473ffffffffffffffffffffffffffffffffffffffff1673ffffffffffffffffffffffffffffffffffffffff16815260200190600101908083116138b7575b505050505090506000815190508067ffffffffffffffff8111156139285761392761628d565b5b60405190808252806020026020018201604052801561396157816020015b61394e61528f565b8152602001906001900390816139465790505b50925060005b81811015613d31576000838281518110613984576139836162bc565b5b6020026020010151905060008583815181106139a3576139a26162bc565b5b6020026020010151905081816000019073ffffffffffffffffffffffffffffffffffffffff16908173ffffffffffffffffffffffffffffffffffffffff168152505060008273ffffffffffffffffffffffffffffffffffffffff166370a082317f000000000000000000000000000000000000000000000000000000000000000073ffffffffffffffffffffffffffffffffffffffff166398fabd3a6040518163ffffffff1660e01b8152600401602060405180830381865afa158015613a6e573d6000803e3d6000fd5b505050506040513d601f19601f82011682018060405250810190613a929190616260565b73ffffffffffffffffffffffffffffffffffffffff16639d2cc4366040518163ffffffff1660e01b8152600401602060405180830381865afa158015613adc573d6000803e3d6000fd5b505050506040513d601f19601f82011682018060405250810190613b009190616260565b6040518263ffffffff1660e01b8152600401613b1c91906153c5565b602060405180830381865afa158015613b39573d6000803e3d6000fd5b505050506040513d601f19601f82011682018060405250810190613b5d9190616300565b905060008373ffffffffffffffffffffffffffffffffffffffff166318160ddd6040518163ffffffff1660e01b8152600401602060405180830381865afa158015613bac573d6000803e3d6000fd5b505050506040513d601f19601f82011682018060405250810190613bd09190616300565b905060008473ffffffffffffffffffffffffffffffffffffffff16634864d1406040518163ffffffff1660e01b8152600401602060405180830381865afa158015613c1f573d6000803e3d6000fd5b505050506040513d601f19601f82011682018060405250810190613c439190616300565b905060008573ffffffffffffffffffffffffffffffffffffffff1663eec7faa16040518163ffffffff1660e01b8152600401602060405180830381865afa158015613c92573d6000803e3d6000fd5b505050506040513d601f19601f82011682018060405250810190613cb69190616300565b905082856020018181525050818560400181815250508085606001818152505083856080018181525050828483613ced919061656a565b613cf7919061670b565b8560a0018181525050828482613d0d919061656a565b613d17919061670b565b8560c0018181525050866001019650505050505050613967565b50505090565b60008181548110613d4757600080fd5b906000526020600020016000915054906101000a900473ffffffffffffffffffffffffffffffffffffffff1681565b60007f000000000000000000000000000000000000000000000000000000000000000073ffffffffffffffffffffffffffffffffffffffff166398fabd3a6040518163ffffffff1660e01b8152600401602060405180830381865afa158015613de3573d6000803e3d6000fd5b505050506040513d601f19601f82011682018060405250810190613e079190616260565b73ffffffffffffffffffffffffffffffffffffffff166338da7dd66040518163ffffffff1660e01b8152600401602060405180830381865afa158015613e51573d6000803e3d6000fd5b505050506040513d601f19601f82011682018060405250810190613e759190616260565b905090565b60007f000000000000000000000000000000000000000000000000000000000000000073ffffffffffffffffffffffffffffffffffffffff166370a0823161dead6040518263ffffffff1660e01b8152600401613ed791906153c5565b602060405180830381865afa158015613ef4573d6000803e3d6000fd5b505050506040513d601f19601f82011682018060405250810190613f189190616300565b7f000000000000000000000000000000000000000000000000000000000000000073ffffffffffffffffffffffffffffffffffffffff166318160ddd6040518163ffffffff1660e01b8152600401602060405180830381865afa158015613f83573d6000803e3d6000fd5b505050506040513d601f19601f82011682018060405250810190613fa79190616300565b613fb191906166a8565b905090565b606060008383905090508067ffffffffffffffff811115613fda57613fd961628d565b5b60405190808252806020026020018201604052801561401357816020015b6140006152e2565b815260200190600190039081613ff85790505b50915060005b8181101561462d5760007f000000000000000000000000000000000000000000000000000000000000000073ffffffffffffffffffffffffffffffffffffffff166398fabd3a6040518163ffffffff1660e01b8152600401602060405180830381865afa15801561408e573d6000803e3d6000fd5b505050506040513d601f19601f820116820180604052508101906140b29190616260565b73ffffffffffffffffffffffffffffffffffffffff1663b99b0a0c6040518163ffffffff1660e01b8152600401602060405180830381865afa1580156140fc573d6000803e3d6000fd5b505050506040513d601f19601f820116820180604052508101906141209190616260565b73ffffffffffffffffffffffffffffffffffffffff1663bbe4f6db87878581811061414e5761414d6162bc565b5b905060200201602081019061416391906158bb565b6040518263ffffffff1660e01b815260040161417f91906153c5565b602060405180830381865afa15801561419c573d6000803e3d6000fd5b505050506040513d601f19601f820116820180604052508101906141c09190616260565b905060008483815181106141d7576141d66162bc565b5b602002602001015190508181610100019073ffffffffffffffffffffffffffffffffffffffff16908173ffffffffffffffffffffffffffffffffffffffff16815250508173ffffffffffffffffffffffffffffffffffffffff166362a5af3b6040518163ffffffff1660e01b8152600401602060405180830381865afa158015614265573d6000803e3d6000fd5b505050506040513d601f19601f8201168201806040525081019061428991906164da565b8160000190151590811515815250508173ffffffffffffffffffffffffffffffffffffffff1663a7f0b3de6040518163ffffffff1660e01b8152600401602060405180830381865afa1580156142e3573d6000803e3d6000fd5b505050506040513d601f19601f820116820180604052508101906143079190616300565b8160200181815250508173ffffffffffffffffffffffffffffffffffffffff16634864d1406040518163ffffffff1660e01b8152600401602060405180830381865afa15801561435b573d6000803e3d6000fd5b505050506040513d601f19601f8201168201806040525081019061437f9190616300565b8160400181815250508173ffffffffffffffffffffffffffffffffffffffff1663eec7faa16040518163ffffffff1660e01b8152600401602060405180830381865afa1580156143d3573d6000803e3d6000fd5b505050506040513d601f19601f820116820180604052508101906143f79190616300565b8160600181815250508173ffffffffffffffffffffffffffffffffffffffff166318160ddd6040518163ffffffff1660e01b8152600401602060405180830381865afa15801561444b573d6000803e3d6000fd5b505050506040513d601f19601f8201168201806040525081019061446f9190616300565b8160800181815250508173ffffffffffffffffffffffffffffffffffffffff1663cbbcf8026040518163ffffffff1660e01b8152600401602060405180830381865afa1580156144c3573d6000803e3d6000fd5b505050506040513d601f19601f820116820180604052508101906144e79190616300565b8160a0018181525050600073ffffffffffffffffffffffffffffffffffffffff168873ffffffffffffffffffffffffffffffffffffffff16146145a8578173ffffffffffffffffffffffffffffffffffffffff166370a08231896040518263ffffffff1660e01b815260040161455d91906153c5565b602060405180830381865afa15801561457a573d6000803e3d6000fd5b505050506040513d601f19601f8201168201806040525081019061459e9190616300565b8160c00181815250505b8173ffffffffffffffffffffffffffffffffffffffff1663a861ad296040518163ffffffff1660e01b8152600401602060405180830381865afa1580156145f3573d6000803e3d6000fd5b505050506040513d601f19601f820116820180604052508101906146179190616300565b8160e00181815250508260010192505050614019565b50509392505050565b6002818154811061464657600080fd5b906000526020600020016000915054906101000a900473ffffffffffffffffffffffffffffffffffffffff1681565b60008060008054806020026020016040519081016040528092919081815260200182805480156146fa57602002820191906000526020600020905b8160009054906101000a900473ffffffffffffffffffffffffffffffffffffffff1673ffffffffffffffffffffffffffffffffffffffff16815260200190600101908083116146b0575b505050505090506000815111614745576040517f08c379a000000000000000000000000000000000000000000000000000000000815260040161473c90616788565b60405180910390fd5b60008160008151811061475b5761475a6162bc565b5b602002602001015190508073ffffffffffffffffffffffffffffffffffffffff16634864d1406040518163ffffffff1660e01b8152600401602060405180830381865afa1580156147b0573d6000803e3d6000fd5b505050506040513d601f19601f820116820180604052508101906147d49190616300565b670de0b6b3a76400008273ffffffffffffffffffffffffffffffffffffffff1663eec7faa16040518163ffffffff1660e01b8152600401602060405180830381865afa158015614828573d6000803e3d6000fd5b505050506040513d601f19601f8201168201806040525081019061484c9190616300565b614856919061656a565b614860919061670b565b92506000600190505b82518110156149ae57828181518110614885576148846162bc565b5b602002602001015191506002848373ffffffffffffffffffffffffffffffffffffffff16634864d1406040518163ffffffff1660e01b8152600401602060405180830381865afa1580156148dd573d6000803e3d6000fd5b505050506040513d601f19601f820116820180604052508101906149019190616300565b670de0b6b3a76400008573ffffffffffffffffffffffffffffffffffffffff1663eec7faa16040518163ffffffff1660e01b8152600401602060405180830381865afa158015614955573d6000803e3d6000fd5b505050506040513d601f19601f820116820180604052508101906149799190616300565b614983919061656a565b61498d919061670b565b6149979190616536565b6149a1919061670b565b9350806001019050614869565b50505090565b606060008383905090508067ffffffffffffffff8111156149d8576149d761628d565b5b604051908082528060200260200182016040528015614a1157816020015b6149fe615346565b8152602001906001900390816149f65790505b50915060005b81811015614db2576000858583818110614a3457614a336162bc565b5b9050602002016020810190614a4991906158bb565b90506000848381518110614a6057614a5f6162bc565b5b602002602001015190507f000000000000000000000000000000000000000000000000000000000000000073ffffffffffffffffffffffffffffffffffffffff168273ffffffffffffffffffffffffffffffffffffffff161480614af05750600073ffffffffffffffffffffffffffffffffffffffff168273ffffffffffffffffffffffffffffffffffffffff16145b15614b435760128160000181815250506040518060400160405280600481526020017f57424e42000000000000000000000000000000000000000000000000000000008152508160400181905250614c3b565b8173ffffffffffffffffffffffffffffffffffffffff1663313ce5676040518163ffffffff1660e01b8152600401602060405180830381865afa158015614b8e573d6000803e3d6000fd5b505050506040513d601f19601f82011682018060405250810190614bb291906167e1565b60ff168160000181815250508173ffffffffffffffffffffffffffffffffffffffff166395d89b416040518163ffffffff1660e01b8152600401600060405180830381865afa158015614c09573d6000803e3d6000fd5b505050506040513d6000823e3d601f19601f82011682018060405250810190614c3291906168b4565b81604001819052505b600073ffffffffffffffffffffffffffffffffffffffff168873ffffffffffffffffffffffffffffffffffffffff1614614da5577f000000000000000000000000000000000000000000000000000000000000000073ffffffffffffffffffffffffffffffffffffffff168273ffffffffffffffffffffffffffffffffffffffff161480614cf55750600073ffffffffffffffffffffffffffffffffffffffff168273ffffffffffffffffffffffffffffffffffffffff16145b15614d20578773ffffffffffffffffffffffffffffffffffffffff1631816020018181525050614da4565b8173ffffffffffffffffffffffffffffffffffffffff166370a08231896040518263ffffffff1660e01b8152600401614d5991906153c5565b602060405180830381865afa158015614d76573d6000803e3d6000fd5b505050506040513d601f19601f82011682018060405250810190614d9a9190616300565b8160200181815250505b5b8260010192505050614a17565b50509392505050565b60007f000000000000000000000000000000000000000000000000000000000000000073ffffffffffffffffffffffffffffffffffffffff166398fabd3a6040518163ffffffff1660e01b8152600401602060405180830381865afa158015614e28573d6000803e3d6000fd5b505050506040513d601f19601f82011682018060405250810190614e4c9190616260565b73ffffffffffffffffffffffffffffffffffffffff1663b93ec54b6040518163ffffffff1660e01b8152600401602060405180830381865afa158015614e96573d6000803e3d6000fd5b505050506040513d601f19601f82011682018060405250810190614eba9190616260565b905090565b60607f000000000000000000000000000000000000000000000000000000000000000073ffffffffffffffffffffffffffffffffffffffff166398fabd3a6040518163ffffffff1660e01b8152600401602060405180830381865afa158015614f2c573d6000803e3d6000fd5b505050506040513d601f19601f82011682018060405250810190614f509190616260565b73ffffffffffffffffffffffffffffffffffffffff1663b99b0a0c6040518163ffffffff1660e01b8152600401602060405180830381865afa158015614f9a573d6000803e3d6000fd5b505050506040513d601f19601f82011682018060405250810190614fbe9190616260565b73ffffffffffffffffffffffffffffffffffffffff1663abc764da6040518163ffffffff1660e01b8152600401600060405180830381865afa158015615008573d6000803e3d6000fd5b505050506040513d6000823e3d601f19601f820116820180604052508101906150319190616465565b905090565b600080828486615046919061656a565b615050919061656a565b9050600084866150609190616536565b858761506c9190616536565b615076919061656a565b90506000811161508b5760009250505061509c565b8082615097919061670b565b925050505b9392505050565b6040518060a00160405280600073ffffffffffffffffffffffffffffffffffffffff168152602001600081526020016000815260200160008152602001600081525090565b6040518060e00160405280600015158152602001600015158152602001600015158152602001600081526020016000815260200160008152602001600081525090565b6040518060c00160405280600073ffffffffffffffffffffffffffffffffffffffff168152602001600081526020016000815260200160008152602001600081526020016000151581525090565b828054828255906000526020600020908101928215615208579160200282015b8281111561520757823573ffffffffffffffffffffffffffffffffffffffff168260006101000a81548173ffffffffffffffffffffffffffffffffffffffff021916908373ffffffffffffffffffffffffffffffffffffffff16021790555091602001919060010190615199565b5b5090506152159190615367565b5090565b6040518060600160405280600073ffffffffffffffffffffffffffffffffffffffff16815260200160008152602001600081525090565b6040518060e001604052806000151581526020016000815260200160008152602001600081526020016000815260200160008152602001600081525090565b6040518060e00160405280600073ffffffffffffffffffffffffffffffffffffffff1681526020016000815260200160008152602001600081526020016000815260200160008152602001600081525090565b60405180610120016040528060001515815260200160008152602001600081526020016000815260200160008152602001600081526020016000815260200160008152602001600073ffffffffffffffffffffffffffffffffffffffff1681525090565b60405180606001604052806000815260200160008152602001606081525090565b5b80821115615380576000816000905550600101615368565b5090565b600073ffffffffffffffffffffffffffffffffffffffff82169050919050565b60006153af82615384565b9050919050565b6153bf816153a4565b82525050565b60006020820190506153da60008301846153b6565b92915050565b6000604051905090565b600080fd5b600080fd5b6153fd816153a4565b811461540857600080fd5b50565b60008135905061541a816153f4565b92915050565b600080fd5b600080fd5b600080fd5b60008083601f84011261544557615444615420565b5b8235905067ffffffffffffffff81111561546257615461615425565b5b60208301915083602082028301111561547e5761547d61542a565b5b9250929050565b60008060006040848603121561549e5761549d6153ea565b5b60006154ac8682870161540b565b935050602084013567ffffffffffffffff8111156154cd576154cc6153ef565b5b6154d98682870161542f565b92509250509250925092565b600081519050919050565b600082825260208201905092915050565b6000819050602082019050919050565b61551a816153a4565b82525050565b6000819050919050565b61553381615520565b82525050565b60a08201600082015161554f6000850182615511565b506020820151615562602085018261552a565b506040820151615575604085018261552a565b506060820151615588606085018261552a565b50608082015161559b608085018261552a565b50505050565b60006155ad8383615539565b60a08301905092915050565b6000602082019050919050565b60006155d1826154e5565b6155db81856154f0565b93506155e683615501565b8060005b838110156156175781516155fe88826155a1565b9750615609836155b9565b9250506001810190506155ea565b5085935050505092915050565b6000602082019050818103600083015261563e81846155c6565b905092915050565b600081519050919050565b600082825260208201905092915050565b6000819050602082019050919050565b600061567e8383615511565b60208301905092915050565b6000602082019050919050565b60006156a282615646565b6156ac8185615651565b93506156b783615662565b8060005b838110156156e85781516156cf8882615672565b97506156da8361568a565b9250506001810190506156bb565b5085935050505092915050565b6000602082019050818103600083015261570f8184615697565b905092915050565b600081519050919050565b600082825260208201905092915050565b6000819050602082019050919050565b60008115159050919050565b61575881615743565b82525050565b60e082016000820151615774600085018261574f565b506020820151615787602085018261574f565b50604082015161579a604085018261574f565b5060608201516157ad606085018261552a565b5060808201516157c0608085018261552a565b5060a08201516157d360a085018261552a565b5060c08201516157e660c085018261552a565b50505050565b60006157f8838361575e565b60e08301905092915050565b6000602082019050919050565b600061581c82615717565b6158268185615722565b935061583183615733565b8060005b8381101561586257815161584988826157ec565b975061585483615804565b925050600181019050615835565b5085935050505092915050565b600060208201905081810360008301526158898184615811565b905092915050565b61589a81615520565b82525050565b60006020820190506158b56000830184615891565b92915050565b6000602082840312156158d1576158d06153ea565b5b60006158df8482850161540b565b91505092915050565b600081519050919050565b600082825260208201905092915050565b6000819050602082019050919050565b60c08201600082015161592a6000850182615511565b50602082015161593d602085018261552a565b506040820151615950604085018261552a565b506060820151615963606085018261552a565b506080820151615976608085018261552a565b5060a082015161598960a085018261574f565b50505050565b600061599b8383615914565b60c08301905092915050565b6000602082019050919050565b60006159bf826158e8565b6159c981856158f3565b93506159d483615904565b8060005b83811015615a055781516159ec888261598f565b97506159f7836159a7565b9250506001810190506159d8565b5085935050505092915050565b60006020820190508181036000830152615a2c81846159b4565b905092915050565b60008060208385031215615a4b57615a4a6153ea565b5b600083013567ffffffffffffffff811115615a6957615a686153ef565b5b615a758582860161542f565b92509250509250929050565b600081519050919050565b600082825260208201905092915050565b6000819050602082019050919050565b606082016000820151615ac36000850182615511565b506020820151615ad6602085018261552a565b506040820151615ae9604085018261552a565b50505050565b6000615afb8383615aad565b60608301905092915050565b6000602082019050919050565b6000615b1f82615a81565b615b298185615a8c565b9350615b3483615a9d565b8060005b83811015615b65578151615b4c8882615aef565b9750615b5783615b07565b925050600181019050615b38565b5085935050505092915050565b60006020820190508181036000830152615b8c8184615b14565b905092915050565b615b9d81615520565b8114615ba857600080fd5b50565b600081359050615bba81615b94565b92915050565b600080600060608486031215615bd957615bd86153ea565b5b6000615be78682870161540b565b9350506020615bf88682870161540b565b9250506040615c0986828701615bab565b9150509250925092565b600081519050919050565b600082825260208201905092915050565b6000819050602082019050919050565b60e082016000820151615c55600085018261574f565b506020820151615c68602085018261552a565b506040820151615c7b604085018261552a565b506060820151615c8e606085018261552a565b506080820151615ca1608085018261552a565b5060a0820151615cb460a085018261552a565b5060c0820151615cc760c085018261552a565b50505050565b6000615cd98383615c3f565b60e08301905092915050565b6000602082019050919050565b6000615cfd82615c13565b615d078185615c1e565b9350615d1283615c2f565b8060005b83811015615d43578151615d2a8882615ccd565b9750615d3583615ce5565b925050600181019050615d16565b5085935050505092915050565b60006020820190508181036000830152615d6a8184615cf2565b905092915050565b600060208284031215615d8857615d876153ea565b5b6000615d9684828501615bab565b91505092915050565b600081519050919050565b600082825260208201905092915050565b6000819050602082019050919050565b60e082016000820151615de16000850182615511565b506020820151615df4602085018261552a565b506040820151615e07604085018261552a565b506060820151615e1a606085018261552a565b506080820151615e2d608085018261552a565b5060a0820151615e4060a085018261552a565b5060c0820151615e5360c085018261552a565b50505050565b6000615e658383615dcb565b60e08301905092915050565b6000602082019050919050565b6000615e8982615d9f565b615e938185615daa565b9350615e9e83615dbb565b8060005b83811015615ecf578151615eb68882615e59565b9750615ec183615e71565b925050600181019050615ea2565b5085935050505092915050565b60006020820190508181036000830152615ef68184615e7e565b905092915050565b600081519050919050565b600082825260208201905092915050565b6000819050602082019050919050565b61012082016000820151615f41600085018261574f565b506020820151615f54602085018261552a565b506040820151615f67604085018261552a565b506060820151615f7a606085018261552a565b506080820151615f8d608085018261552a565b5060a0820151615fa060a085018261552a565b5060c0820151615fb360c085018261552a565b5060e0820151615fc660e085018261552a565b50610100820151615fdb610100850182615511565b50505050565b6000615fed8383615f2a565b6101208301905092915050565b6000602082019050919050565b600061601282615efe565b61601c8185615f09565b935061602783615f1a565b8060005b8381101561605857815161603f8882615fe1565b975061604a83615ffa565b92505060018101905061602b565b5085935050505092915050565b6000602082019050818103600083015261607f8184616007565b905092915050565b600081519050919050565b600082825260208201905092915050565b6000819050602082019050919050565b600081519050919050565b600082825260208201905092915050565b60005b838110156160ed5780820151818401526020810190506160d2565b60008484015250505050565b6000601f19601f8301169050919050565b6000616115826160b3565b61611f81856160be565b935061612f8185602086016160cf565b616138816160f9565b840191505092915050565b600060608301600083015161615b600086018261552a565b50602083015161616e602086018261552a565b5060408301518482036040860152616186828261610a565b9150508091505092915050565b600061619f8383616143565b905092915050565b6000602082019050919050565b60006161bf82616087565b6161c98185616092565b9350836020820285016161db856160a3565b8060005b8581101561621757848403895281516161f88582616193565b9450616203836161a7565b925060208a019950506001810190506161df565b50829750879550505050505092915050565b6000602082019050818103600083015261624381846161b4565b905092915050565b60008151905061625a816153f4565b92915050565b600060208284031215616276576162756153ea565b5b60006162848482850161624b565b91505092915050565b7f4e487b7100000000000000000000000000000000000000000000000000000000600052604160045260246000fd5b7f4e487b7100000000000000000000000000000000000000000000000000000000600052603260045260246000fd5b6000815190506162fa81615b94565b92915050565b600060208284031215616316576163156153ea565b5b6000616324848285016162eb565b91505092915050565b600060408201905061634260008301856153b6565b61634f60208301846153b6565b9392505050565b61635f826160f9565b810181811067ffffffffffffffff8211171561637e5761637d61628d565b5b80604052505050565b60006163916153e0565b905061639d8282616356565b919050565b600067ffffffffffffffff8211156163bd576163bc61628d565b5b602082029050602081019050919050565b60006163e16163dc846163a2565b616387565b905080838252602082019050602084028301858111156164045761640361542a565b5b835b8181101561642d5780616419888261624b565b845260208401935050602081019050616406565b5050509392505050565b600082601f83011261644c5761644b615420565b5b815161645c8482602086016163ce565b91505092915050565b60006020828403121561647b5761647a6153ea565b5b600082015167ffffffffffffffff811115616499576164986153ef565b5b6164a584828501616437565b91505092915050565b6164b781615743565b81146164c257600080fd5b50565b6000815190506164d4816164ae565b92915050565b6000602082840312156164f0576164ef6153ea565b5b60006164fe848285016164c5565b91505092915050565b7f4e487b7100000000000000000000000000000000000000000000000000000000600052601160045260246000fd5b600061654182615520565b915061654c83615520565b925082820190508082111561656457616563616507565b5b92915050565b600061657582615520565b915061658083615520565b9250817fffffffffffffffffffffffffffffffffffffffffffffffffffffffffffffffff04831182151516156165b9576165b8616507565b5b828202905092915050565b600080600080608085870312156165de576165dd6153ea565b5b60006165ec878288016164c5565b94505060206165fd878288016162eb565b935050604061660e878288016162eb565b925050606061661f878288016162eb565b91505092959194509250565b600082825260208201905092915050565b7f2141555448000000000000000000000000000000000000000000000000000000600082015250565b600061667260058361662b565b915061667d8261663c565b602082019050919050565b600060208201905081810360008301526166a181616665565b9050919050565b60006166b382615520565b91506166be83615520565b92508282039050818111156166d6576166d5616507565b5b92915050565b7f4e487b7100000000000000000000000000000000000000000000000000000000600052601260045260246000fd5b600061671682615520565b915061672183615520565b925082616731576167306166dc565b5b828204905092915050565b7f21537461626c6541727261790000000000000000000000000000000000000000600082015250565b6000616772600c8361662b565b915061677d8261673c565b602082019050919050565b600060208201905081810360008301526167a181616765565b9050919050565b600060ff82169050919050565b6167be816167a8565b81146167c957600080fd5b50565b6000815190506167db816167b5565b92915050565b6000602082840312156167f7576167f66153ea565b5b6000616805848285016167cc565b91505092915050565b600080fd5b600067ffffffffffffffff82111561682e5761682d61628d565b5b616837826160f9565b9050602081019050919050565b600061685761685284616813565b616387565b9050828152602081018484840111156168735761687261680e565b5b61687e8482856160cf565b509392505050565b600082601f83011261689b5761689a615420565b5b81516168ab848260208601616844565b91505092915050565b6000602082840312156168ca576168c96153ea565b5b600082015167ffffffffffffffff8111156168e8576168e76153ef565b5b6168f484828501616886565b9150509291505056fea2646970667358221220dbe905d535becbeb8099d79c46ea13263fbe275546c1ff30186a174ab8fc4ac264736f6c63430008100033",
  "linkReferences": {},
  "deployedLinkReferences": {}
}